:100000006F0010016F00C00700000000000000003A
:100010006F00C010000000000000000000000000A1
:100020006F00401800000000000000000000000009
:100030006F00C01F00000000000000000000000072
:10004000000000006F0000276F00402F000000003C
:1000500000000000000000000000000000000000A0
:10006000000000006F0000366F00403E6F008046C9
:100070006F00C04E6F0000576F00405F6F008067D9
:10008000130101F81300000013000000130000002A
:1000900023201100232221002324310023264100A4
:1000A00023285100232A6100232C7100232E810074
:1000B000232091022322A1022324B1022326C1027C
:1000C0002328D102232AE102232CF102232E01034B
:1000D0002320110523222105232431052326410550
:1000E00023285105232A6105232C7105232E810520
:1000F000232091072322A1072324B1072326C10728
:100100002328D107232AE107232CF1077325203464
:10011000F3251034EF00100D6F004066130101F855
:100120002320110023222100232431002326410013
:1001300023285100232A6100232C7100232E8100E3
:10014000232091022322A1022324B1022326C102EB
:100150002328D102232AE102232CF102232E0103BA
:1001600023201105232221052324310523264105BF
:1001700023285105232A6105232C7105232E81058F
:10018000232091072322A1072324B1072326C10797
:100190002328D107232AE107232CF107EF001002BF
:1001A0006F00C05D130101F82320110023222100FC
:1001B000232431002326410023285100232A6100F3
:1001C000232C7100232E8100232091022322A102DF
:1001D0002324B1022326C1022328D102232AE102CB
:1001E000232CF102232E01032320110523222105B4
:1001F000232431052326410523285105232A61059F
:10020000232C7105232E8105232091072322A1078A
:100210002324B1072326C1072328D107232AE10776
:10022000232CF107EF0040736F004055130101F8D4
:100230002320110023222100232431002326410002
:1002400023285100232A6100232C7100232E8100D2
:10025000232091022322A1022324B1022326C102DA
:100260002328D102232AE102232CF102232E0103A9
:1002700023201105232221052324310523264105AE
:1002800023285105232A6105232C7105232E81057E
:10029000232091072322A1072324B1072326C10786
:1002A0002328D107232AE107232CF107EF001000B0
:1002B0006F00C04C130101F82320110023222100FC
:1002C000232431002326410023285100232A6100E2
:1002D000232C7100232E8100232091022322A102CE
:1002E0002324B1022326C1022328D102232AE102BA
:1002F000232CF102232E01032320110523222105A3
:10030000232431052326410523285105232A61058D
:10031000232C7105232E8105232091072322A10779
:100320002324B1072326C1072328D107232AE10765
:10033000232CF107EF0000786F004044130101F80F
:1003400023201100232221002324310023264100F1
:1003500023285100232A6100232C7100232E8100C1
:10036000232091022322A1022324B1022326C102C9
:100370002328D102232AE102232CF102232E010398
:10038000232011052322210523243105232641059D
:1003900023285105232A6105232C7105232E81056D
:1003A000232091072322A1072324B1072326C10775
:1003B0002328D107232AE107232CF107EF00406F00
:1003C0006F00C03B130101F82320110023222100FC
:1003D000232431002326410023285100232A6100D1
:1003E000232C7100232E8100232091022322A102BD
:1003F0002324B1022326C1022328D102232AE102A9
:10040000232CF102232E0103232011052322210591
:10041000232431052326410523285105232A61057C
:10042000232C7105232E8105232091072322A10768
:100430002324B1072326C1072328D107232AE10754
:10044000232CF107EF00C0686F004033130101F85F
:1004500023201100232221002324310023264100E0
:1004600023285100232A6100232C7100232E8100B0
:10047000232091022322A1022324B1022326C102B8
:100480002328D102232AE102232CF102232E010387
:10049000232011052322210523243105232641058C
:1004A00023285105232A6105232C7105232E81055C
:1004B000232091072322A1072324B1072326C10764
:1004C0002328D107232AE107232CF107EF0000603E
:1004D0006F00C02A130101F82320110023222100FC
:1004E000232431002326410023285100232A6100C0
:1004F000232C7100232E8100232091022322A102AC
:100500002324B1022326C1022328D102232AE10297
:10051000232CF102232E0103232011052322210580
:10052000232431052326410523285105232A61056B
:10053000232C7105232E8105232091072322A10757
:100540002324B1072326C1072328D107232AE10743
:10055000232CF107EF0040576F004022130101F8F0
:1005600023201100232221002324310023264100CF
:1005700023285100232A6100232C7100232E81009F
:10058000232091022322A1022324B1022326C102A7
:100590002328D102232AE102232CF102232E010376
:1005A000232011052322210523243105232641057B
:1005B00023285105232A6105232C7105232E81054B
:1005C000232091072322A1072324B1072326C10753
:1005D0002328D107232AE107232CF107EF00804EBF
:1005E0006F00C019130101F82320110023222100FC
:1005F000232431002326410023285100232A6100AF
:10060000232C7100232E8100232091022322A1029A
:100610002324B1022326C1022328D102232AE10286
:10062000232CF102232E010323201105232221056F
:10063000232431052326410523285105232A61055A
:10064000232C7105232E8105232091072322A10746
:100650002324B1072326C1072328D107232AE10732
:10066000232CF107EF00C0456F004011130101F882
:1006700023201100232221002324310023264100BE
:1006800023285100232A6100232C7100232E81008E
:10069000232091022322A1022324B1022326C10296
:1006A0002328D102232AE102232CF102232E010365
:1006B000232011052322210523243105232641056A
:1006C00023285105232A6105232C7105232E81053A
:1006D000232091072322A1072324B1072326C10742
:1006E0002328D107232AE107232CF107EF00003D3F
:1006F0006F00C008130101F82320110023222100FC
:10070000232431002326410023285100232A61009D
:10071000232C7100232E8100232091022322A10289
:100720002324B1022326C1022328D102232AE10275
:10073000232CF102232E010323201105232221055E
:10074000232431052326410523285105232A610549
:10075000232C7105232E8105232091072322A10735
:100760002324B1072326C1072328D107232AE10721
:10077000232CF107EF0040346F004000832001007C
:1007800003214100832181000322C1008322010152
:1007900003234101832381010324C1018324010236
:1007A00003254102832581020326C102832601031A
:1007B00003274103832781030328C10383280104FE
:1007C0000329410483298104032AC104832A0105E2
:1007D000032B4105832B8105032CC105832C0106C6
:1007E000032D4106832D8106032EC106832E0107AA
:1007F000032F4107832F8107130101087300203065
:1008000000000000000000000000000000000000E8
:10081000735000307350403097F0FFFF9380807E1C
:10082000F322103093F2120063960202F32250304A
:1008300093F2320013031000639E6200F3225030E3
:1008400093F2C2FF17F3FFFF1303037C639A620462
:100850006F00000197F2FFFF9382027B739052308A
:1008600017370000130707FE97370000938787FDAF
:1008700017380000130808FD6308F70063860701B6
:1008800097000000E780800A973100009381817B08
:10089000EF004001174100001301C1016F00401F2C
:1008A00073001000938200009387018113880187F1
:1008B00063840701EF00400597370000938787F8AE
:1008C00013880181638C0701EF000004938701877F
:1008D0001388010763840701EF0000031737000046
:1008E000130747F6973700009387C7F517380000BE
:1008F000130848F56306F70063840701EF00C002A0
:1009000093800200678000006364F804B368F80015
:1009100093F83800634E100323A007009387470025
:10092000E3CC07FF678000006364F802B368F80057
:1009300093F83800634E10018328070023A01701A5
:100940009387470013074700E3C807FF6F00800045
:100950006F00000067800000130101FF2324810065
:100960002326110013040008F3374430EF00C013AE
:10097000B746008037C7000293860684832787FF27
:100980000326C7FF03A7060083A64600B74500025B
:100990003387E700B337F700B306D600B387D70035
:1009A00023A0E50023A2F500732444308320C10076
:1009B000032481001301010167800000130101FF7E
:1009C00023261100EF00400D376700008327070240
:1009D0008320C10093F7D7FF2320F7021301010101
:1009E00067800000635E05089317150093D7170012
:1009F0001307B0006394E7006F00400B130730004B
:100A00006394E7006FF09FFB130770006394E700A7
:100A10006FF09FF4130780016394E7006F00400BB1
:100A2000130790016394E7006F00400A1307A001C9
:100A30006394E7006F0040091307B0016394E70077
:100A40006F0040081307C0016394E7006F00400780
:100A50001307D0016394E7006F0040061307E0011D
:100A60006394E7006F004005130700016394E700FB
:100A70006F004004130710016394E7006F00400308
:100A8000130101FF1305150023261100EF00800458
:100A90006F10407F67800000130101FF1305A00065
:100AA00023261100EF00000367800000678000002C
:100AB000678000006780000067800000678000009A
:100AC000678000006780000067800000678000008A
:100AD000678000006F0000002320B50067800000E1
:100AE0000325050067800000138E0600331EBE003C
:100AF000337ECE00032305009303060093C3F3FF68
:100B0000337373003363C3012320650067800000E3
:100B1000032505003375C5003355B5006780000017
:100B20002310B500678000000315050067800000F2
:100B3000138E0600331EBE00337ECE000313050065
:100B40009303060093C3F3FF337373003363C3014E
:100B50002310650067800000031505003375C5008C
:100B60003355B500678000002300B50067800000A2
:100B70000305050067800000138E0600331EBE00CB
:100B8000337ECE00030305009303060093C3F3FFF7
:100B9000337373003363C301230065006780000073
:100BA000030505003375C5003355B50067800000A7
:100BB0006304050A9307700063E0D70AB7270000B3
:100BC000637CF608130101FE232C810023282101F8
:100BD0001304060013890500232A91009375F60F6C
:100BE000930405001354544013058900232E11006B
:100BF000232631011374847F93890600EFF0DFF61A
:100C00001305C900B3653401EFF01FF613050901A0
:100C100023A02401EFF0DFF5137525006312050210
:100C2000238204008320C101032481018324410124
:100C3000032901018329C10013010102678000001B
:100C400003A5040013054500EFF09FF203A504007F
:100C5000130505016FF01FFC6780000063020506A5
:100C600063800506130101FF2324810023229100E4
:100C70002326110093040500138405008347040014
:100C8000639C07008320C10003248100832441006A
:100C9000130101016780000003A50400130505018D
:100CA000EFF01FED13751500E30805FE8345040002
:100CB00003A5040013041400EFF01FEB6FF01FFCFA
:100CC00067800000130101FF232481001304050045
:100CD000032505009306000013061000930500008D
:100CE00023261100EFF05FE903250400930530008F
:100CF0001305C501EFF05FE7032504009305F00F2E
:100D000013054500EFF05FE603250400032481008E
:100D10008320C10093061000130610009305000005
:100D2000130101016FF05FE56302050E130101FF7E
:100D30002322910023261100232481002320210156
:100D4000938405006388050A13040500130906004F
:100D5000930500001306800413054500EF10106C86
:100D60009307F9FF939707012320940093D7070176
:100D70001307F0016374F7001309100093060000D5
:100D800013061000231224051385040093050000A8
:100D9000EFF09FDE032504009305000013054502D4
:100DA000EFF09FDC03250400930530001305C50117
:100DB000EFF09FDB032504009305F00F13054500BA
:100DC000EFF09FDA03250400930500001305850169
:100DD000EFF09FD903250400032481008320C10084
:100DE0008324410003290100930530001301010110
:100DF0006FF09FD78320C10003248100832441002A
:100E000003290100130101016780000067800000D1
:100E1000630A0506130101FF232481001304050062
:100E2000032505009306000013061000930500003B
:100E300023261100EFF05FD40325040023240404CB
:100E4000930530001305C501EFF01FD20325040000
:100E50009305F00F13054500EFF01FD103250400A3
:100E60009305000013058501EFF01FD00325040052
:100E7000032481008320C100930530001301010188
:100E80006FF09FCE678000006302050A9307700031
:100E900063EEB708130101FF23248100130405004A
:100EA00003250500232291001306200093840500EA
:100EB0009305100023261100EFF09FCE630E05046A
:100EC00003250400130600019305400013050502E5
:100ED000EFF01FCD930710006316F5001305040013
:100EE000EFF05FDE0325040013054502EFF05FC855
:100EF000832704009305100003248100B395950017
:100F00008320C10083244100B3E5A5001385470277
:100F1000130101016FF05FC58320C100032481002C
:100F200083244100130101016780000067800000F5
:100F30006304050A9307700063E0B70A130101FF19
:100F400023248100130405000325050023229100BA
:100F5000130620009384050093051000232611003A
:100F6000EFF01FC46300050603250400130600010B
:100F70009305400013050502EFF09FC29307100090
:100F80006316F50013050400EFF0DFD3032504001A
:100F900013054502EFF0DFBD832704009305100021
:100FA00003248100B39595008320C1008324410070
:100FB00093C5F5FFB3F5A5001385470213010101A1
:100FC0006FF09FBA8320C100032481008324410075
:100FD000130101016780000067800000130101FE1A
:100FE000232E1100232C8100232A910023260100A7
:100FF0006306050613040500032505009384050018
:101000001306200093051000EFF09FB96308050454
:1010100003250400930530001305C501EFF0DFB48C
:10102000032504009385040013058502EFF0DFAA71
:101030000325040013062000930510001305050284
:10104000EFF01FB693071000E314F5FE032504002C
:1010500013058500EFF0DFA82326A1008320C1013E
:10106000032481010325C1008324410113010102EE
:10107000678000009395850033E6C50013160601CE
:10108000135606412324C502930710002322F502BC
:1010900083274503E39E07FE8327050323220502DA
:1010A000139507011355050167800000939585008E
:1010B00033E6C500131606011356064193071000C8
:1010C0002324C502B78501002322F5029385056A12
:1010D0009307000003264503137676006306060097
:1010E00093871700E398B7FE23A0C6002320F700DC
:1010F00083270503232205021395070113550501D4
:1011000067800000930505003745008013050585BD
:101110006FF0DFB4B787FFFF130101FE93C70783AA
:101120002314F100B7370080938747DC1357C500BD
:101130003387E70003470700232E11002307010030
:101140002305E100135785001377F7003387E70085
:1011500003470700A305E100135745001377F70085
:101160001375F5003387E700B387A700034707002F
:1011700083C70700130581002306E100A306F100E1
:10118000EFF05FF88320C1011301010267800000C6
:10119000130101FF232481001304050013550501E9
:1011A00023261100EFF01FF713150401032481001B
:1011B0008320C10013550501130101016FF09FF554
:1011C000130101FE232C8100130405003735008034
:1011D000130505D0232E11002326B100EFF09FF256
:1011E0008325C10013850500EFF0DFF1373500805E
:1011F0001305853DEFF01FF103250400EFF05FF9C3
:10120000373500801305C5D0EFF0DFEF032544002C
:10121000EFF01FF837350080130545D1EFF09FEE52
:1012200003258400EFF0DFF6373500801305C5D1C4
:10123000EFF05FED03250401EFF09FF537350080F7
:10124000130545D2EFF01FEC03258404EFF05FF4A3
:1012500037350080130505D3EFF0DFEA03250405D9
:10126000EFF01FF3373500801305C5D3EFF09FE98A
:101270000325C405EFF0DFF1032481018320C101C0
:101280003735008013054511130101026FF09FE708
:10129000130101FD232E310193090500373500802C
:1012A000130585D423261102232481022320210340
:1012B000232C4101232A51012326B100232291022C
:1012C000EFF05FE48325C10013040008373A008083
:1012D00013850500EFF01FE337350080130545D572
:1012E000EFF05FE2B73A008013090018B387890076
:1012F00083A40700638404021305CA3CEFF09FE057
:101300001315040113550501EFF0DFE013858AD1B1
:10131000EFF05FDF13850400EFF09FE71304440054
:10132000E31624FD032481028320C10283244102A9
:10133000032901028329C101032A8101832A410172
:101340003735008013054511130101036FF09FDB52
:10135000130101FE232E110023070100631605026D
:1013600093070003A306F10093078000138517007D
:10137000930741003385A700EFF0DFD88320C10138
:1013800013010102678000001307410093079000DA
:101390001306A00093059000B376C5029387F7FF6C
:1013A0001307F7FF938606032305D700B356C5023C
:1013B000E3FEA5FA138506006FF01FFE130101FF7F
:1013C0002320210113090600130610002326110013
:1013D000232481002322910093840500EFF09FC90C
:1013E0001304050037350080130505D9EFF09FD1B0
:1013F00013050900EFF01FD1373500801305C5D95B
:10140000EFF05FD013850400EFF09FF437350080D4
:10141000130545DAEFF01FCF13050400EFF09FCF5F
:1014200037350080130505DBEFF0DFCD13552400C1
:1014300013751500EFF0DFF137350080130585DBFC
:10144000EFF05FCC1355540013751500EFF05FF00B
:10145000032481008320C10083244100032901006B
:101460003735008013054511130101016FF09FC945
:10147000130101FC232821031309050037350080DF
:10148000130585D5232E1102232C8102232A9102D4
:1014900013040600232631032326B100EFF09FC674
:1014A0008325C10013850500EFF0DFC537350080C7
:1014B0001305C5EDEFF01FC513050400EFF05FE95C
:1014C0001307C10193068101930504001306000070
:1014D00013050900EFF09FBD930405003735008028
:1014E000130505D6EFF01FC213850400EFF09FC26D
:1014F000B7340080138584D6EFF0DFC00355810137
:10150000EFF05FC1373500801305C5D6EFF09FBF00
:101510000355C101EFF01FC01307C10193068101FC
:10152000930504001306100013050900EFF01FB81F
:101530009309050037350080130505D7EFF09FBCF0
:1015400013850900EFF01FBD138584D6EFF09FBB14
:1015500003558101EFF01FBC1307C1019306810100
:10156000930504001306F00013050900EFF01FB403
:101570009309050037350080130585D7EFF09FB834
:1015800013850900EFF01FB9138584D6EFF09FB7DC
:1015900003558101EFF01FB81307C10193068101C4
:1015A000930504001306100113050900EFF01FB0A6
:1015B0001304050037350080130545D8EFF09FB4BC
:1015C00013050400EFF01FB5138584D6EFF09FB329
:1015D00003558101EFF01FB4373500801305451125
:1015E000EFF05FB28320C10303248103832441030E
:1015F000032901038329C10213010104678000004C
:10160000B727000037070060938747C02324F702FD
:10161000930710002322F702B707006003A74703D0
:10162000E31E07FE03A70703B726000023A2070255
:10163000938646C023A4D702137717FE23A6E7029A
:10164000B707006003A74703E31E07FE3727000024
:10165000130797C023A4E7021307100023A2E70291
:10166000B707006003A74703E31E07FE03A70703AE
:10167000B726000023A20702938696C013670720AF
:1016800023A4D70223A6E702370700608327470376
:10169000E39E07FE67800000B7470F00130101FFBC
:1016A000938707242322F100B78701009387076AF5
:1016B0002324F100B7270000370700609387F7C1A4
:1016C0002324F70223260702B707006003A7470376
:1016D000E31E07FE37270000130707C023A4E70215
:1016E0001307100023A2E702B707006003A7470310
:1016F000E31E07FE03A70703B71600009386062024
:101700003367D700B726000023A20702938606C0DE
:1017100023A4D70223A6E7023707006083274703E5
:10172000E39E07FEB7070060372700009385870216
:10173000130717C01305100023A0E50023A2A7027A
:1017400083A64703E39E06FE83A6070323A20702A0
:101750000326410093F606021306F6FF2322C1007A
:101760006396060083264100E39806FCB7870100D4
:10177000232601009387F7690327C10063FCE71064
:10178000B727000037070060938717C02324F702AC
:10179000930710002322F702B707006003A747034F
:1017A000E31E07FE03A7070323A2070213774700E0
:1017B000630E070C371700001307072023A4E70266
:1017C0001307100023A2E702B707006003A747032F
:1017D000E31E07FE83A607033717000023A20702B4
:1017E000B3E6E6001307072023A4E70223A6D702E7
:1017F000B707006003A74703E31E07FE3717000083
:101800001307072023A4E7021307100023A2E7020F
:10181000B707006003A74703E31E07FE03A70703FC
:10182000B716000023A2070293860620136707203D
:1018300023A4D70223A6E7023707006083274703C4
:10184000E39E07FEB7070060371700009385870205
:10185000130717201305100023A0E50023A2A702F9
:1018600083A64703E39E06FE83A6070323A207027F
:101870000326810093F606021306F6FF2324C10017
:101880006396060083268100E39806FC130101019C
:10189000678000000327C100130717002326E1001B
:1018A0006FF09FED130101FF2315010023160100C6
:1018B000B72700002317010037070060938727C070
:1018C0002324F702930710002322F702B7070060D2
:1018D00003A74703E31E07FE03A707031317070128
:1018E000135707012315E1003727000023A2070241
:1018F000130737C023A4E7021307100023A2E7024F
:10190000B707006003A74703E31E07FE03A707030B
:1019100013170701135707012316E10037270000AB
:1019200023A207021307F7C123A4E702130730001D
:1019300023A6E702B707006003A74703E31E07FEDD
:1019400037270000130707C123A4E702130710007D
:1019500023A2E702B707006003A74703E31E07FEC1
:1019600003A7070313170701135707012317E10004
:1019700023A207020357E100136707082317E100BA
:1019800037270000130707C123A4E7020357E1002C
:10199000131707011357070123A6E702B7070060D3
:1019A00003A74703E31E07FE372700001307F7C10D
:1019B00023A4E7021307000123A6E702B70700608C
:1019C00003A74703E31E07FE3787FFFF1307070F31
:1019D0002317E10037270000130727C123A4E702DC
:1019E0000357E100131707011357070123A6E70266
:1019F0003707006083274703E39E07FEB7070060B1
:101A0000B726000013868702938626C1930510002F
:101A10002320D60023A2B70203A74703E31E07FE35
:101A200003A7070313170701135707012314E10046
:101A300023A2070203578100131707011357074119
:101A4000E34807FC372700001307F7C123A4E70288
:101A500023A60702B707006003A74703E31E07FE9C
:101A600037270000130707C023A4E702130710005D
:101A700023A2E702B707006003A74703E31E07FEA0
:101A800003A70703B78600001317070113570701C1
:101A90002313E10023A20702035761003367D70035
:101AA0002313E10037270000130707C023A4E70230
:101AB00003576100131707011357070123A6E70215
:101AC0003707006083274703E39E07FEB7070060E0
:101AD000B726000093858702938606C01305100081
:101AE00023A0D50023A2A70203A74703E31E07FEF6
:101AF00003A70703138647021317070113570701AC
:101B00002314E10023A207020357810013170701E2
:101B100013570741E34607FC37270000130707C0A8
:101B200023A4E702930710002320F600B707006004
:101B300003A74703E31E07FE03A7070313170701C5
:101B4000135707012314E10023A207028357A100C2
:101B50008357C10083578100130101016780000092
:101B6000B70700601307500023A0E7003777000095
:101B70001307172023A2E700376760601307C70326
:101B800023A0E7043707C0B123A2E7043707010009
:101B9000130707F023A4E7043707FF0F23A6E70482
:101BA000370700041307071823A8E704370781063F
:101BB0001307F7FF23AAE7043707080023AC07043D
:101BC0001307F7FF23AEE7041307F00023A0E71C79
:101BD0001307700023A0E70283A707026FF09FCCD2
:101BE000B727000037070060938747D02324F70208
:101BF000930710002322F702B707006003A74703EB
:101C0000E31E07FE03A70703B726000023A207026F
:101C1000938646D023A4D702137717FE23A6E702A4
:101C2000B707006003A74703E31E07FE372700003E
:101C3000130797D023A4E7021307100023A2E7029B
:101C4000B707006003A74703E31E07FE03A70703C8
:101C5000B726000023A20702938696D013670720B9
:101C600023A4D70223A6E702370700608327470390
:101C7000E39E07FE67800000B7470F00130101FFD6
:101C8000938707242322F100B78701009387076A0F
:101C90002324F100B7270000370700609387F7D1AE
:101CA0002324F70223260702B707006003A7470390
:101CB000E31E07FE37270000130707D023A4E7021F
:101CC0001307100023A2E702B707006003A747032A
:101CD000E31E07FE03A70703B7160000938606203E
:101CE0003367D700B726000023A20702938606D0E9
:101CF00023A4D70223A6E702370700608327470300
:101D0000E39E07FEB7070060372700009385870230
:101D1000130717D01305100023A0E50023A2A70284
:101D200083A64703E39E06FE83A6070323A20702BA
:101D30000326410093F606021306F6FF2322C10094
:101D40006396060083264100E39806FCB7870100EE
:101D5000232601009387F7690327C10063FCE7107E
:101D6000B727000037070060938717D02324F702B6
:101D7000930710002322F70283274703E39E07FE01
:101D8000832707032322070293F747006380070E88
:101D9000B717000037370060938707302324F70216
:101DA000930710002322F702B737006003A7470309
:101DB000E31E07FE83A607033717000023A20702CE
:101DC000B3E6E6001307073023A4E70223A6D702F1
:101DD000B737006003A74703E31E07FE371700006D
:101DE0001307073023A4E7021307100023A2E7021A
:101DF000B737006003A74703E31E07FE03A70703E7
:101E0000B716000023A20702938606301367072047
:101E100023A4D70223A6E7023737006083274703AE
:101E2000E39E07FEB73700603717000093858702EF
:101E3000130717301305100023A0E50023A2A70203
:101E400083A64703E39E06FE83A6070323A2070299
:101E50000326810093F606021306F6FF2324C10031
:101E60006396060083268100E39806FC13010101B6
:101E7000678000000327C100130717002326E10035
:101E80006FF09FED130101FE2315010023160100E1
:101E9000B7270000232E1100231701003707006029
:101EA000938727D02324F702930710002322F702F9
:101EB000B707006003A74703E31E07FE03A7070356
:101EC00013170701135707012315E10037270000F7
:101ED00023A20702130737D023A4E7021307100039
:101EE00023A2E702B707006003A74703E31E07FE2C
:101EF00003A7070313170701135707012316E10070
:101F000023A207020357A100B70701009387F7FF39
:101F10006382E7028357A1009397070193D70701D4
:101F2000639807048357C1009397070193D707016C
:101F300063900704373500801305C545EFF08F9C8B
:101F40000355A100EFF00F9D373500801305C548FC
:101F5000EFF04F9B0355C100EFF0CF9B8320C101F1
:101F60003735008013050549130101026FF08F9981
:101F7000B7270000370700609387F7D12324F702C3
:101F8000930730002326F702B707006003A7470333
:101F9000E31E07FE37270000130707D123A4E7023B
:101FA0001307100023A2E702B707006003A7470347
:101FB000E31E07FE03A707031317070113570701C3
:101FC0002317E10023A207020357E1001367070864
:101FD0002317E10037270000130707D123A4E702E6
:101FE0000357E100131707011357070123A6E70260
:101FF000B707006003A74703E31E07FE372700006B
:102000001307F7D123A4E7021307000123A6E70271
:10201000B707006003A74703E31E07FE3787FFFFEC
:102020001307070F2317E10037270000130727D1F5
:1020300023A4E7020357E100131707011357070111
:1020400023A6E7023707006083274703E39E07FEC6
:10205000B7871E00B7260000938707489305F0FF57
:1020600037070060938626D1130510009387F7FF8A
:102070006392B710B7270000370700609387F7D146
:102080002324F70223260702B707006003A74703AC
:10209000E31E07FE37270000130707D023A4E7023B
:1020A0001307100023A2E702B707006003A7470346
:1020B000E31E07FE03A70703B786000013170701F7
:1020C000135707012313E10023A2070203576100FE
:1020D0003367D7002313E10037270000130707D029
:1020E00023A4E702035761001317070113570701E1
:1020F00023A6E7023707006083274703E39E07FE16
:10210000B7871E00B7260000938707489305F0FFA6
:1021100037070060938606D0130510009387F7FFFA
:10212000639EB708B727000037070060938707D082
:102130002324F702930710002322F702B707006059
:1021400003A74703E31E07FE03A707038320C1017C
:1021500013170701135707012314E10023A20702F5
:102160008357A1008357C1008357810013010102E7
:10217000678000002324D7022322A70203264703F7
:10218000E31E06FE03260703131606011356060177
:102190002314C100232207020356810013160601EF
:1021A00013560641E34406ECE39607EC373500800E
:1021B0001305054CEFE01FF56FF0DFEB2324D7028A
:1021C0002322A70203264703E31E06FE0326070376
:1021D00013160601135606012314C1002322070219
:1021E000035681001316060113560641E34806F212
:1021F000E39A07F23735008013054550EFE09FF072
:102200006FF05FF2B73700601307500023A0E700BC
:10221000377700001307172023A2E70037676060B5
:102220001307C70323A0E7043707C0B123A2E704BD
:1022300037070100130707F023A4E7043707FF0F50
:1022400023A6E704370700041307071823A8E704A9
:10225000370781061307F7FF23AAE70437070800AB
:1022600023AC07041307F7FF23AEE7041307F000BE
:1022700023A0E71C1307700023A0E70283A707022F
:102280006FF05FC037450080130101FA930610001C
:102290001306A002B715006013050585232E11044F
:1022A000232C8104232A910423263105232251055E
:1022B00023206105232E7103232C8103232821056C
:1022C00023244105232A91032328A1032326B103B4
:1022D000EFE01F8E37350080130585DDEFE09FE2CC
:1022E00037350080130585E0EFE0DFE1EF005001B6
:1022F00037350080130585E3EFE0DFE037350080F8
:10230000130585E5EFE01FE037050060EFE05FE8CB
:1023100037350080130545E7EFE0DFDEEFF05F843F
:1023200037350080130545E9EFE0DFDD3735008004
:102330001305C5EAEFE01FDD37050060EFE05FE55C
:102340003734008013054411B7090100EFE09FDB2B
:10235000930400009389F9FF373B0080B73B00806E
:10236000373C0080930A000213F9F40F930509002B
:102370001306200037050060EFE0DFCF930509006A
:10238000130A05001306300037050060EFE09FCE0A
:102390001309050063063A05B367AA00939707017E
:1023A00093D70701638E070213054BEDEFE09FD52E
:1023B00013850400EFE0DFF913854BEEEFE09FD4C7
:1023C00013050A00EFE01FD51305CCEEEFE09FD315
:1023D00013050900EFE01FD413054411EFE09FD26D
:1023E00093841400E39254F937350080130545EFC8
:1023F000EFE05FD137350080130545F0EFE09FD067
:1024000037350060EFE0DFD837350080130505F27F
:10241000EFE05FCFEFF01FDF37350080130505F4E5
:10242000EFE05FCE37350080130585F5EFE09FCDF7
:10243000B7270000370700609387F7C12324F7020E
:10244000930700012326F702370900608327490319
:10245000E39E07FE130630019305C00137050060B7
:10246000EFE05FC19304050037350080130585F860
:10247000EFE05FC913850400EFE0DFC9B727000074
:10248000938737C19394240193D424012324F90220
:1024900023269902B704006083A74403E39E07FE46
:1024A000373500801305C5F9EFE0DFC513063001AD
:1024B0009305C00137050060EFE0DFBBEFE09FC58B
:1024C00013054411EFE01FC4B7270000938727C10D
:1024D00023A4F402B78700009387070F23A6F40212
:1024E000B707006083A44703E39E04FEB7594C007E
:1024F000938909B4130620019305C00137050060D4
:10250000EFE05FB7131A0501135A0A4113090500DA
:102510009384140063540A00E39E34FD3735008031
:10252000130585FAEFE01FBE13050900EFE09FBE1B
:1025300037350080130505FCEFE0DFBC1385040090
:10254000EFE01FC563580A00373500801305C5FC4E
:10255000EFE05FBB9317190163D8070037350080A0
:10256000130585FDEFE01FBA13054411EFE09FB995
:10257000B7270000370700609387F7C12324F702CD
:102580002326070283274703E39E07FE372900001F
:10259000B7F9FFFF130909C09304C0019389F9FF3C
:1025A000378BFFFF930B703E930A000213067001F6
:1025B0009385040037050060EFE0DFAB9367790196
:1025C00093970701337535013707006093D70741AB
:1025D000131505012324F702135505012326A7022D
:1025E000370A006083274A03E39E07FE13060000B4
:1025F0009385040037050060EFE0DFA733656501D0
:102600001315050123242A03135505012326AA02C5
:1026100037070060032A4703E31E0AFE232E01004A
:102620000327C10163F4EB489384140093F4F40F7F
:1026300013090910E39C54F737350080130585FF13
:10264000EFE05FAC3735008013054501EFE09FAB4D
:10265000EFE01FFB373500801305C503EFE09FAAAD
:102660003735008013058505EFE0DFA9EFF04FD780
:102670003735008013054508EFE0DFA837350080C7
:102680001305450AEFE01FA8EFF00F8137350080F2
:102690001305C50CEFE01FA7373500801305050FA4
:1026A000EFE05FA6EFF04FDD3735008013058511B1
:1026B000EFE05FA5373600801306C6139305C0010F
:1026C00037050060EFE09FCF373600801306C61451
:1026D0009305200137050060EFE05FCE37360080BC
:1026E000130686159305D00137050060EFE01FCD76
:1026F00037360080130686169305300137350060A3
:10270000EFE0DFCB3735008013054517EFE09F9FE3
:102710003737006003250700B7340080373C00805E
:10272000EFE01FA713054411EFE0DF9D3735008070
:102730001305C519EFE01F9DB73500801306200172
:102740009385851E37050060EFE09FD2B735008086
:102750001306C0019385C52037050060EFE05FD107
:10276000B7350080130630019385052337050060D7
:10277000EFE01FD013061001938584253705006014
:10278000EFE01FCF3735008013054527EFE09F9717
:10279000B7350080130630019385452C373500602E
:1027A000EFE01FCDB7350080130620019385C52EBD
:1027B00037350060EFE0DFCBB73500801306C0018E
:1027C0009385453137350060EFE09FCA130610014D
:1027D0009385842537350060EFE09FC93735008049
:1027E0001305C533EFE01F92B73500809385C536DA
:1027F00037050060EFE0DF9CB73500809385053832
:1028000037350060EFE0DF9B37177A001307F71FBB
:10281000B73B0080373B0080B73A0080B739008073
:1028200037390080232C0100832681016378D72863
:10283000130610009305C00137050060EFE09F8389
:10284000930D050013061000930520013705006065
:10285000EFE05F82130D0500130610009305D00111
:1028600037050060EFE01F8113061000930530016B
:10287000930C050037350060EFE0CFFF93040500AF
:1028800013054C39EFE01F8893061A0013050A0060
:102890002326D100EFE0DFAB13850B3AEFE09F86F4
:1028A00013850D00EFE01F8713058B3AEFE09F853E
:1028B00013050D00EFE01F8613850A3BEFE09F84B0
:1028C00013850C00EFE01F85B73700801385873B29
:1028D000EFE05F8313850400EFE0DF831385093C9D
:1028E000EFE05F8213D52D0013751500EFE05FA6B2
:1028F00013552D0013751500EFE09FA513D52C007F
:1029000013751500EFE0DFA413D52400137515002F
:10291000EFE01FA413058903EFE0CFFE37350080F9
:102920001305053DEFE00FFEB704006003A50400AA
:10293000B73C0080EFE0DF851385CCD0EFE08FFC63
:1029400003A54400B7340060EFE09F843735008072
:102950001305053EEFE00FFB03A50400EFE05F83E6
:102960001385CCD0EFE00FFA03A54400EFE05F82BF
:1029700013054411EFE00FF9B73500809385C53E8C
:1029800037050060EFE0DF90B73500809385053FA5
:1029900037350060EFE0DF8FB747006003AD070019
:1029A0003735008083AC470083A4870083ADC70020
:1029B00003AA07011305453FEFE0CFF413150A0101
:1029C00013550501EFE00FF537350080130545403D
:1029D000EFE04FF313150D0113550501EFE08FF3F1
:1029E0003735008013050541EFE0CFF113550D0198
:1029F000EFE04FF23735008013058541EFE08FF0AF
:102A000013950C0113550501EFE0CFF03735008029
:102A100013054542EFE00FEF13D50C01EFE08FEF08
:102A2000373500801305C542EFE0CFED13F5740094
:102A3000EFE01F923735008013054543EFE08FEC40
:102A400013D5340013751500EFE09F9037350080E3
:102A50001305C543EFE00FEB13D5440013751500C4
:102A6000EFE01F8F3735008013054544EFE08FE915
:102A700013D5540013751500EFE09F8D3735008096
:102A800013050545EFE00FE813850D00EFE04FF06B
:102A900013054411EFE00FE78326C100B7177A0052
:102AA0001387F71F138A06006FF0DFD70327C101D2
:102AB00013071700232EE1006FF09FB683268101D4
:102AC00093861600232CD1006FF01FD6B7676202E1
:102AD000938707A033D5A702130101FF2326A10086
:102AE0008327C1006396070013010101678000007E
:102AF0008327C1009387F7FF2326F1006FF05FFE65
:102B0000130101FE232C81003744008013060002CC
:102B1000B725006013058485232E1100232A910018
:102B2000232821012326310123244101232251019D
:102B300023206101EFE04F9F13058485EFE04FAD47
:102B40009305000013058485EFE00FB4B7850000FE
:102B5000938505F013058485EFE04FC89304F009D1
:102B6000B785000013058485EFE04FC71375F50F97
:102B7000E31895FEB76500009385B51B13058485A2
:102B800037890000B7390080371A0000EFE00FC521
:102B900093040000130909F093890954130B0001F1
:102BA000130A0A80930AF02F3387990083450700A0
:102BB00093978400B3F72701B3E5B7001305848525
:102BC000EFE0CFC1130500046384640113050A001C
:102BD00093841400EFF09FEFE39854FDB765000075
:102BE0009385B51B13058485EFE04FBF13058485DE
:102BF000032481018320C1018324410103290101B0
:102C00008329C100032A8100832A4100032B01008C
:102C100093050000130101026FE08FB11303F00070
:102C200013070500637EC3029377F7006390070ADA
:102C300063920508937606FF1376F600B386E600E6
:102C40002320B7002322B7002324B7002326B70090
:102C500013070701E366D7FE6314060067800000D0
:102C6000B306C3409396260097020000B386560031
:102C70006780C6002307B700A306B7002306B70086
:102C8000A305B7002305B700A304B7002304B700CA
:102C9000A303B7002303B700A302B7002302B700C2
:102CA000A301B7002301B700A300B7002300B700BA
:102CB0006780000093F5F50F93968500B3E5D50086
:102CC00093960501B3E5D5006FF0DFF693962700E4
:102CD00097020000B386560093820000E78006FA50
:102CE00093800200938707FF3307F7403306F6000F
:102CF000E378C3F66FF0DFF300000000000000008F
:102D00005B6D61636366675D20000000204346479A
:102D1000323D0000204950473D000000204D415801
:102D200046523D00204649464F30283438293D0060
:102D3000204649464F32283530293D002046494635
:102D40004F35283543293D005B6D616373746174B1
:102D50005D2000003A0000005B7063735D2000009E
:102D60002043746C3D0000002F693D002F633D003F
:102D7000205374733D000000204578745374733DF4
:102D8000000000002054424943746C3D00000000E4
:102D90005B73746174655D20000000002050485929
:102DA00020000000207374617475733D0000000002
:102DB000206C696E6B3D000020616E65675F646F1B
:102DC0006E653D0030313233343536373839414263
:102DD00043444546000000000D0A0D0A5B626F6F18
:102DE000745D20696E7465726C6F636B20666972C6
:102DF0006D7761726520697465722D34207374611A
:102E00007274696E670D0A005B626F6F745D206398
:102E10006F6E6669677572655F7A6C33303336340E
:102E20002028636C6F636B2067656E657261746FD9
:102E300072290D0A000000005B626F6F745D2063F1
:102E40006F6E6669677572655F7A6C3330333634DE
:102E500020646F6E650D0A005B626F6F745D207495
:102E600073655F696E697420284D414320302040AE
:102E7000200000002C2050485920323820636F7009
:102E8000706572202F2031382053474D4949290D54
:102E90000A0000005B626F6F745D207473655F6988
:102EA0006E697420646F6E650D0A00005B73636168
:102EB0006E5D207377656570696E67204D44494F7C
:102EC00020302E2E33312076696120545345204026
:102ED000200000005B7363616E5D202020616464EC
:102EE000723D000020204944313D0000202049442B
:102EF000323D00005B7363616E5D20646F6E650D33
:102F00000A0000005B626F6F745D20747365315F4F
:102F1000696E697420284D41432031204020000013
:102F20002C2050485920323920636F707065722010
:102F30002F2031392053474D4949290D0A000000FF
:102F40005B626F6F745D20747365315F696E697465
:102F500020646F6E650D0A005B7673635D205653C7
:102F6000433835373520342D706F72742053474DF8
:102F7000494920636F6E6669672073746172746972
:102F80006E670D0A000000005B7673635D203139C7
:102F900047206265666F72653D3078002061667417
:102FA00065723D30780000005B7673635D203138D8
:102FB0004720706F73742D636D643D30780000009E
:102FC000206379636C65733D307800002054494D6F
:102FD000454F555400000000204552524F5228736F
:102FE0007175656C63682D70617463682D6D6973AC
:102FF00073696E67290000005B7673635D2056532A
:10300000433835373520696E697420646F6E650DFD
:103010000A0000005B626F6F745D205068795F6129
:1030200064766572746973652028706F72742030DD
:103030002C20504859203238290D0A005B626F6FEE
:10304000745D205068795F61647665727469736538
:1030500020646F6E650D0A005B626F6F745D2050B7
:103060006879315F61647665727469736520287070
:103070006F727420312C20504859203239290D0AA2
:10308000000000005B626F6F745D20506879315FF3
:1030900061647665727469736520646F6E650D0A8C
:1030A000000000005B626F6F745D207068795F6183
:1030B00075746F6E65676F74696174696F6E2028CF
:1030C000706F72742030290D0A0000005B626F6F10
:1030D000745D207068795F6175746F6E65676F7479
:1030E000696174696F6E20646F6E650D0A0000007F
:1030F0005B626F6F745D20706879315F6175746FAA
:103100006E65676F74696174696F6E2028706F7285
:10311000742031290D0A00005B626F6F745D2070AE
:103120006879315F6175746F6E65676F746961741A
:10313000696F6E20646F6E650D0A0000706F7274A7
:103140003020636F7070657200000000706F7274E1
:10315000302053474D494900706F72743120636FBE
:103160007070657200000000706F727431205347F8
:103170004D4949005B70726F62655D20436F7265F7
:103180005453455F31204D41435F434F4E464947BD
:103190005F31207265616473200000005B646961C7
:1031A000675D20697465722D342050435320647527
:1031B0006D70732076696120434F52455453455FCB
:1031C00030206D617374657220285453455F42410D
:1031D0005345414444522C2065787465726E616C8D
:1031E00020627573290D0A00504859313820284350
:1031F0004F52455453455F3020736C6176652C20E7
:10320000657870656374204F4B290000504859322F
:10321000382028565343383537352070302C20203D
:103220002020657870656374204F4B2900000000F2
:1032300050485931392028434F52455453455F3146
:103240002C206578706563742053494C454E54209A
:103250006F6E2065787429005048593137202875E1
:103260006E757365642C20626173656C696E652987
:10327000000000005B646961675D20697465722D00
:1032800034205043532064756D707320766961203B
:10329000434F52455453455F31206D6173746572DD
:1032A0002028545345315F42415345414444522CF8
:1032B00020696E7465726E616C20627573290D0AE7
:1032C0000000000050485931392028434F524554DE
:1032D00053455F3120736C6176652C20657870658D
:1032E0006374204F4B204E4F5729000050485931EE
:1032F000382028434F52455453455F3020736C614A
:1033000076652C206578706563742053494C454E72
:103310005429000050485932382028565343383534
:1033200037352070302C202020206578706563743C
:103330002053494C454E5429000000005B626F6FDA
:10334000745D20696E697420636F6D706C6574655F
:1033500020E2809420706F6C6C696E6720626F74DD
:103360006820706F7274730D0A000000434F52455D
:103370005453455F302028706F727430290000006C
:10338000434F52455453455F312028706F7274315A
:10339000290000005B706F6C6C20743D0000000021
:1033A0005D207030633D0000207030733D000000F0
:1033B000207031633D000000207031733D0000003B
:1033C00020286C696E6B20626974733A20000000DB
:1033D0005B6366675D20703020434647313D0000E7
:1033E000207C20703120434647313D0050300000A2
:1033F000503100005B6462675D2064664C656E3D21
:103400000000000020646174615F656E643D00002F
:10341000206665643D000000207061645F656E6435
:103420003D0000002073656E743D000020737461E0
:1034300074653D00206F5264793D0000206F456F38
:10344000663D000020646654766C643D0000000018
:10345000206672616D65733D000000005B706879E5
:10346000315D205741524E494E473A20504859202D
:10347000323920494420726567697374657220721D
:10348000656164732061732000000000202F20001C
:1034900020E2809420504859206C696B656C79203B
:1034A000616273656E742C20736B697070696E67EE
:1034B00020706879315F696E69740D0A0000000040
:1034C0005B706879315D205741524E494E473A2032
:1034D00074696D656F75742077616974696E6720B2
:1034E000666F72205048592032392072656720304B
:1034F0007831322062697420313520636C656172E5
:103500000D0A00005B706879315D205741524E49C9
:103510004E473A2074696D656F75742077616974E0
:10352000696E6720666F72205048592032392072C8
:103530006573657420636F6D706C6574650D0A004A
:103540001F4005000009F2FFFFFFFF046AAAAB005D
:1035500000000000000000000180030000000000E7
:10356000000000000000000000000000000000005B
:10357000000000000000161616161616161616166F
:10358000160000000000AAAA2A00555515000000E8
:103590005555555555555555555555000000000084
:1035A0003333333333030000FF071B1B1B1BA01BEC
:1035B000A01B1B1B1B0000000000000000000001FE
:1035C0009C4000FA000100019C4000FA000100014B
:1035D0009C4000FA000100019C4000FA000100013B
:1035E00000010001000100019C4001E60001000112
:1035F00000010001000100019C4002710001000176
:103600009C400271000100019C400C35000100014A
:103610009C400C350001000100000000000000008B
:10362000000000000000000000000000103254768E
:10363000980A0000000000000000000000000002E6
:10364000E482003300FFFFFFFFFF0F000087010B44
:10365000002270206400000000050500000000004A
:10366000E487003300FFFFFFFFFF0F000087010B1F
:10367000002270206400000000050500000000002A
:103680000C00003300FF0FFFFFFF0F000087010B4E
:10369000002270206400000000050500000000000A
:1036A000000000000000000000000000000000001A
:1036B0000000000000000000000000000000000307
:1036C00000000300000000000000000000000000F7
:1036D00000000000000000000000000000000000EA
:1036E00000000000000000000014000000000000C6
:1036F000900F00000000000061A809C40001000153
:1037000061A809C40001000161A809C40001000109
:1037100061A809C4000100010000000000000000D1
:103720000000000000000000000000000000000099
:103730000000000000000000000000000000000485
:10374000000004000008F2C350F3C3500000020060
:103750000064000064F3C35000000800000800008B
:1037600064000028000008000008000064000064F5
:103770000000000000000000000000000000000049
:103780000000000000000000000000000000000039
:1037900000000000450000000000000000000000E4
:1037A00000BBFFFFFFFF0000600000000000000002
:1037B0000000000000000000000000000000000504
:1037C00000000000000000000000000000000000F9
:1037D00000000000000000000000000000000000E9
:1037E00000000000000000000000000000000000D9
:1037F00000000000000000000000000000000000C9
:10380000000001FF0401FF0401FF040000000000AC
:1038100000000000000000000000000000000000A8
:103820000000000000000000000000000000000098
:103830000000000000000000000000000000000088
:040000058000000077
:00000001FF
